{
  "_format": "hh-sol-artifact-1",
  "contractName": "CaseHash",
  "sourceName": "contracts/CaseHash.sol",
  "abi": [
    {
      "anonymous": false,
      "inputs": [
        {
          "indexed": true,
          "internalType": "bytes32",
          "name": "documentHash",
          "type": "bytes32"
        },
        {
          "indexed": false,
          "internalType": "uint256",
          "name": "timestamp",
          "type": "uint256"
        }
      ],
      "name": "DocumentRegistered",
      "type": "event"
    },
    {
      "inputs": [
        {
          "internalType": "bytes32",
          "name": "",
          "type": "bytes32"
        }
      ],
      "name": "hashToTimestamp",
      "outputs": [
        {
          "internalType": "uint256",
          "name": "",
          "type": "uint256"
        }
      ],
      "stateMutability": "view",
      "type": "function"
    },
    {
      "inputs": [
        {
          "internalType": "bytes32",
          "name": "_documentHash",
          "type": "bytes32"
        }
      ],
      "name": "registerHash",
      "outputs": [],
      "stateMutability": "nonpayable",
      "type": "function"
    },
    {
      "inputs": [
        {
          "internalType": "bytes32",
          "name": "_documentHash",
          "type": "bytes32"
        }
      ],
      "name": "verifyHash",
      "outputs": [
        {
          "internalType": "bool",
          "name": "",
          "type": "bool"
        },
        {
          "internalType": "uint256",
          "name": "",
          "type": "uint256"
        }
      ],
      "stateMutability": "view",
      "type": "function"
    }
  ],
  "bytecode": "0x6080604052348015600f57600080fd5b506103528061001f6000396000f3fe608060405234801561001057600080fd5b50600436106100415760003560e01c80638f1de16e14610046578063ef020f4a14610062578063fac5db2014610093575b600080fd5b610060600480360381019061005b91906101fa565b6100c3565b005b61007c600480360381019061007791906101fa565b61016a565b60405161008a92919061025b565b60405180910390f35b6100ad60048036038101906100a891906101fa565b6101a7565b6040516100ba9190610284565b60405180910390f35b60008060008381526020019081526020016000205414610118576040517f08c379a000000000000000000000000000000000000000000000000000000000815260040161010f906102fc565b60405180910390fd5b4260008083815260200190815260200160002081905550807f55f2e8879ca204f6fe3632cd4cb56db0db3b74d7b5fc265e0c3fe236e8f29eb34260405161015f9190610284565b60405180910390a250565b6000806000806000858152602001908152602001600020549050600081036101995760008092509250506101a2565b60018192509250505b915091565b60006020528060005260406000206000915090505481565b600080fd5b6000819050919050565b6101d7816101c4565b81146101e257600080fd5b50565b6000813590506101f4816101ce565b92915050565b6000602082840312156102105761020f6101bf565b5b600061021e848285016101e5565b91505092915050565b60008115159050919050565b61023c81610227565b82525050565b6000819050919050565b61025581610242565b82525050565b60006040820190506102706000830185610233565b61027d602083018461024c565b9392505050565b6000602082019050610299600083018461024c565b92915050565b600082825260208201905092915050565b7f4861736820616c726561647920726567697374657265642e0000000000000000600082015250565b60006102e660188361029f565b91506102f1826102b0565b602082019050919050565b60006020820190508181036000830152610315816102d9565b905091905056fea2646970667358221220c32c56159cb0411bbc774352f779fc82635c783570c0753f14a5a1f995a1914264736f6c634300081c0033",
  "linkReferences": {},
  "deployedLinkReferences": {}
}